{
  "contractName": "Mint",
  "abi": [
    {
      "inputs": [],
      "stateMutability": "nonpayable",
      "type": "constructor"
    },
    {
      "anonymous": false,
      "inputs": [
        {
          "indexed": true,
          "internalType": "address",
          "name": "owner",
          "type": "address"
        },
        {
          "indexed": true,
          "internalType": "address",
          "name": "approved",
          "type": "address"
        },
        {
          "indexed": true,
          "internalType": "uint256",
          "name": "tokenId",
          "type": "uint256"
        }
      ],
      "name": "Approval",
      "type": "event"
    },
    {
      "anonymous": false,
      "inputs": [
        {
          "indexed": true,
          "internalType": "address",
          "name": "owner",
          "type": "address"
        },
        {
          "indexed": true,
          "internalType": "address",
          "name": "operator",
          "type": "address"
        },
        {
          "indexed": false,
          "internalType": "bool",
          "name": "approved",
          "type": "bool"
        }
      ],
      "name": "ApprovalForAll",
      "type": "event"
    },
    {
      "anonymous": false,
      "inputs": [
        {
          "indexed": true,
          "internalType": "address",
          "name": "from",
          "type": "address"
        },
        {
          "indexed": true,
          "internalType": "address",
          "name": "to",
          "type": "address"
        },
        {
          "indexed": true,
          "internalType": "uint256",
          "name": "tokenId",
          "type": "uint256"
        }
      ],
      "name": "Transfer",
      "type": "event"
    },
    {
      "inputs": [
        {
          "internalType": "address",
          "name": "to",
          "type": "address"
        },
        {
          "internalType": "uint256",
          "name": "tokenId",
          "type": "uint256"
        }
      ],
      "name": "approve",
      "outputs": [],
      "stateMutability": "nonpayable",
      "type": "function"
    },
    {
      "inputs": [
        {
          "internalType": "address",
          "name": "owner",
          "type": "address"
        }
      ],
      "name": "balanceOf",
      "outputs": [
        {
          "internalType": "uint256",
          "name": "",
          "type": "uint256"
        }
      ],
      "stateMutability": "view",
      "type": "function",
      "constant": true
    },
    {
      "inputs": [
        {
          "internalType": "uint256",
          "name": "tokenId",
          "type": "uint256"
        }
      ],
      "name": "getApproved",
      "outputs": [
        {
          "internalType": "address",
          "name": "",
          "type": "address"
        }
      ],
      "stateMutability": "view",
      "type": "function",
      "constant": true
    },
    {
      "inputs": [
        {
          "internalType": "address",
          "name": "owner",
          "type": "address"
        },
        {
          "internalType": "address",
          "name": "operator",
          "type": "address"
        }
      ],
      "name": "isApprovedForAll",
      "outputs": [
        {
          "internalType": "bool",
          "name": "",
          "type": "bool"
        }
      ],
      "stateMutability": "view",
      "type": "function",
      "constant": true
    },
    {
      "inputs": [],
      "name": "name",
      "outputs": [
        {
          "internalType": "string",
          "name": "",
          "type": "string"
        }
      ],
      "stateMutability": "view",
      "type": "function",
      "constant": true
    },
    {
      "inputs": [
        {
          "internalType": "uint256",
          "name": "tokenId",
          "type": "uint256"
        }
      ],
      "name": "ownerOf",
      "outputs": [
        {
          "internalType": "address",
          "name": "",
          "type": "address"
        }
      ],
      "stateMutability": "view",
      "type": "function",
      "constant": true
    },
    {
      "inputs": [
        {
          "internalType": "address",
          "name": "from",
          "type": "address"
        },
        {
          "internalType": "address",
          "name": "to",
          "type": "address"
        },
        {
          "internalType": "uint256",
          "name": "tokenId",
          "type": "uint256"
        }
      ],
      "name": "safeTransferFrom",
      "outputs": [],
      "stateMutability": "nonpayable",
      "type": "function"
    },
    {
      "inputs": [
        {
          "internalType": "address",
          "name": "from",
          "type": "address"
        },
        {
          "internalType": "address",
          "name": "to",
          "type": "address"
        },
        {
          "internalType": "uint256",
          "name": "tokenId",
          "type": "uint256"
        },
        {
          "internalType": "bytes",
          "name": "data",
          "type": "bytes"
        }
      ],
      "name": "safeTransferFrom",
      "outputs": [],
      "stateMutability": "nonpayable",
      "type": "function"
    },
    {
      "inputs": [
        {
          "internalType": "address",
          "name": "operator",
          "type": "address"
        },
        {
          "internalType": "bool",
          "name": "approved",
          "type": "bool"
        }
      ],
      "name": "setApprovalForAll",
      "outputs": [],
      "stateMutability": "nonpayable",
      "type": "function"
    },
    {
      "inputs": [
        {
          "internalType": "bytes4",
          "name": "interfaceId",
          "type": "bytes4"
        }
      ],
      "name": "supportsInterface",
      "outputs": [
        {
          "internalType": "bool",
          "name": "",
          "type": "bool"
        }
      ],
      "stateMutability": "view",
      "type": "function",
      "constant": true
    },
    {
      "inputs": [],
      "name": "symbol",
      "outputs": [
        {
          "internalType": "string",
          "name": "",
          "type": "string"
        }
      ],
      "stateMutability": "view",
      "type": "function",
      "constant": true
    },
    {
      "inputs": [
        {
          "internalType": "uint256",
          "name": "tokenId",
          "type": "uint256"
        }
      ],
      "name": "tokenURI",
      "outputs": [
        {
          "internalType": "string",
          "name": "",
          "type": "string"
        }
      ],
      "stateMutability": "view",
      "type": "function",
      "constant": true
    },
    {
      "inputs": [
        {
          "internalType": "address",
          "name": "from",
          "type": "address"
        },
        {
          "internalType": "address",
          "name": "to",
          "type": "address"
        },
        {
          "internalType": "uint256",
          "name": "tokenId",
          "type": "uint256"
        }
      ],
      "name": "transferFrom",
      "outputs": [],
      "stateMutability": "nonpayable",
      "type": "function"
    },
    {
      "inputs": [],
      "name": "getCurrentId",
      "outputs": [
        {
          "internalType": "uint256",
          "name": "",
          "type": "uint256"
        }
      ],
      "stateMutability": "view",
      "type": "function",
      "constant": true
    },
    {
      "inputs": [
        {
          "internalType": "address",
          "name": "to",
          "type": "address"
        }
      ],
      "name": "mint",
      "outputs": [
        {
          "internalType": "uint256",
          "name": "",
          "type": "uint256"
        }
      ],
      "stateMutability": "nonpayable",
      "type": "function"
    }
  ],
  "bytecode": "0x608060405260636008553480156200001657600080fd5b506040518060400160405280601981526020017f574156455320427573696e65737343617264204e4654207631000000000000008152506040518060400160405280600381526020017f57424e0000000000000000000000000000000000000000000000000000000000815250816000908162000094919062000329565b508060019081620000a6919062000329565b50505062000410565b600081519050919050565b7f4e487b7100000000000000000000000000000000000000000000000000000000600052604160045260246000fd5b7f4e487b7100000000000000000000000000000000000000000000000000000000600052602260045260246000fd5b600060028204905060018216806200013157607f821691505b602082108103620001475762000146620000e9565b5b50919050565b60008190508160005260206000209050919050565b60006020601f8301049050919050565b600082821b905092915050565b600060088302620001b17fffffffffffffffffffffffffffffffffffffffffffffffffffffffffffffffff8262000172565b620001bd868362000172565b95508019841693508086168417925050509392505050565b6000819050919050565b6000819050919050565b60006200020a62000204620001fe84620001d5565b620001df565b620001d5565b9050919050565b6000819050919050565b6200022683620001e9565b6200023e620002358262000211565b8484546200017f565b825550505050565b600090565b6200025562000246565b620002628184846200021b565b505050565b5b818110156200028a576200027e6000826200024b565b60018101905062000268565b5050565b601f821115620002d957620002a3816200014d565b620002ae8462000162565b81016020851015620002be578190505b620002d6620002cd8562000162565b83018262000267565b50505b505050565b600082821c905092915050565b6000620002fe60001984600802620002de565b1980831691505092915050565b6000620003198383620002eb565b9150826002028217905092915050565b6200033482620000af565b67ffffffffffffffff81111562000350576200034f620000ba565b5b6200035c825462000118565b620003698282856200028e565b600060209050601f831160018114620003a157600084156200038c578287015190505b6200039885826200030b565b86555062000408565b601f198416620003b1866200014d565b60005b82811015620003db57848901518255600182019150602085019450602081019050620003b4565b86831015620003fb5784890151620003f7601f891682620002eb565b8355505b6001600288020188555050505b505050505050565b612c5680620004206000396000f3fe608060405234801561001057600080fd5b50600436106100f55760003560e01c80636a62784211610097578063a22cb46511610066578063a22cb46514610298578063b88d4fde146102b4578063c87b56dd146102d0578063e985e9c514610300576100f5565b80636a627842146101fc5780636c1438621461022c57806370a082311461024a57806395d89b411461027a576100f5565b8063095ea7b3116100d3578063095ea7b31461017857806323b872dd1461019457806342842e0e146101b05780636352211e146101cc576100f5565b806301ffc9a7146100fa57806306fdde031461012a578063081812fc14610148575b600080fd5b610114600480360381019061010f9190611af6565b610330565b6040516101219190611b3e565b60405180910390f35b610132610412565b60405161013f9190611be9565b60405180910390f35b610162600480360381019061015d9190611c41565b6104a4565b60405161016f9190611caf565b60405180910390f35b610192600480360381019061018d9190611cf6565b6104ea565b005b6101ae60048036038101906101a99190611d36565b610601565b005b6101ca60048036038101906101c59190611d36565b610661565b005b6101e660048036038101906101e19190611c41565b610681565b6040516101f39190611caf565b60405180910390f35b61021660048036038101906102119190611d89565b610707565b6040516102239190611dc5565b60405180910390f35b6102346107a4565b6040516102419190611dc5565b60405180910390f35b610264600480360381019061025f9190611d89565b6107b5565b6040516102719190611dc5565b60405180910390f35b61028261086c565b60405161028f9190611be9565b60405180910390f35b6102b260048036038101906102ad9190611e0c565b6108fe565b005b6102ce60048036038101906102c99190611f81565b610914565b005b6102ea60048036038101906102e59190611c41565b610976565b6040516102f79190611be9565b60405180910390f35b61031a60048036038101906103159190612004565b610a88565b6040516103279190611b3e565b60405180910390f35b60007f80ac58cd000000000000000000000000000000000000000000000000000000007bffffffffffffffffffffffffffffffffffffffffffffffffffffffff1916827bffffffffffffffffffffffffffffffffffffffffffffffffffffffff191614806103fb57507f5b5e139f000000000000000000000000000000000000000000000000000000007bffffffffffffffffffffffffffffffffffffffffffffffffffffffff1916827bffffffffffffffffffffffffffffffffffffffffffffffffffffffff1916145b8061040b575061040a82610b1c565b5b9050919050565b60606000805461042190612073565b80601f016020809104026020016040519081016040528092919081815260200182805461044d90612073565b801561049a5780601f1061046f5761010080835404028352916020019161049a565b820191906000526020600020905b81548152906001019060200180831161047d57829003601f168201915b5050505050905090565b60006104af82610b86565b6004600083815260200190815260200160002060009054906101000a900473ffffffffffffffffffffffffffffffffffffffff169050919050565b60006104f582610681565b90508073ffffffffffffffffffffffffffffffffffffffff168373ffffffffffffffffffffffffffffffffffffffff1603610565576040517f08c379a000000000000000000000000000000000000000000000000000000000815260040161055c90612116565b60405180910390fd5b8073ffffffffffffffffffffffffffffffffffffffff16610584610bd1565b73ffffffffffffffffffffffffffffffffffffffff1614806105b357506105b2816105ad610bd1565b610a88565b5b6105f2576040517f08c379a00000000000000000000000000000000000000000000000000000000081526004016105e9906121a8565b60405180910390fd5b6105fc8383610bd9565b505050565b61061261060c610bd1565b82610c92565b610651576040517f08c379a00000000000000000000000000000000000000000000000000000000081526004016106489061223a565b60405180910390fd5b61065c838383610d27565b505050565b61067c83838360405180602001604052806000815250610914565b505050565b60008061068d83611020565b9050600073ffffffffffffffffffffffffffffffffffffffff168173ffffffffffffffffffffffffffffffffffffffff16036106fe576040517f08c379a00000000000000000000000000000000000000000000000000000000081526004016106f5906122a6565b60405180910390fd5b80915050919050565b6000610713600761105d565b6008541015610757576040517f08c379a000000000000000000000000000000000000000000000000000000000815260040161074e90612338565b60405180910390fd5b6000610763600761105d565b905061076f838261106b565b61079181604051806060016040528060238152602001612bfe60239139611288565b61079b60076112f5565b80915050919050565b60006107b0600761105d565b905090565b60008073ffffffffffffffffffffffffffffffffffffffff168273ffffffffffffffffffffffffffffffffffffffff1603610825576040517f08c379a000000000000000000000000000000000000000000000000000000000815260040161081c906123ca565b60405180910390fd5b600360008373ffffffffffffffffffffffffffffffffffffffff1673ffffffffffffffffffffffffffffffffffffffff168152602001908152602001600020549050919050565b60606001805461087b90612073565b80601f01602080910402602001604051908101604052809291908181526020018280546108a790612073565b80156108f45780601f106108c9576101008083540402835291602001916108f4565b820191906000526020600020905b8154815290600101906020018083116108d757829003601f168201915b5050505050905090565b610910610909610bd1565b838361130b565b5050565b61092561091f610bd1565b83610c92565b610964576040517f08c379a000000000000000000000000000000000000000000000000000000000815260040161095b9061223a565b60405180910390fd5b61097084848484611477565b50505050565b606061098182610b86565b60006006600084815260200190815260200160002080546109a190612073565b80601f01602080910402602001604051908101604052809291908181526020018280546109cd90612073565b8015610a1a5780601f106109ef57610100808354040283529160200191610a1a565b820191906000526020600020905b8154815290600101906020018083116109fd57829003601f168201915b505050505090506000610a2b6114d3565b90506000815103610a40578192505050610a83565b600082511115610a75578082604051602001610a5d929190612426565b60405160208183030381529060405292505050610a83565b610a7e846114ea565b925050505b919050565b6000600560008473ffffffffffffffffffffffffffffffffffffffff1673ffffffffffffffffffffffffffffffffffffffff16815260200190815260200160002060008373ffffffffffffffffffffffffffffffffffffffff1673ffffffffffffffffffffffffffffffffffffffff16815260200190815260200160002060009054906101000a900460ff16905092915050565b60007f01ffc9a7000000000000000000000000000000000000000000000000000000007bffffffffffffffffffffffffffffffffffffffffffffffffffffffff1916827bffffffffffffffffffffffffffffffffffffffffffffffffffffffff1916149050919050565b610b8f81611552565b610bce576040517f08c379a0000000000000000000000000000000000000000000000000000000008152600401610bc5906122a6565b60405180910390fd5b50565b600033905090565b816004600083815260200190815260200160002060006101000a81548173ffffffffffffffffffffffffffffffffffffffff021916908373ffffffffffffffffffffffffffffffffffffffff160217905550808273ffffffffffffffffffffffffffffffffffffffff16610c4c83610681565b73ffffffffffffffffffffffffffffffffffffffff167f8c5be1e5ebec7d5bd14f71427d1e84f3dd0314c0f7b2291e5b200ac8c7c3b92560405160405180910390a45050565b600080610c9e83610681565b90508073ffffffffffffffffffffffffffffffffffffffff168473ffffffffffffffffffffffffffffffffffffffff161480610ce05750610cdf8185610a88565b5b80610d1e57508373ffffffffffffffffffffffffffffffffffffffff16610d06846104a4565b73ffffffffffffffffffffffffffffffffffffffff16145b91505092915050565b8273ffffffffffffffffffffffffffffffffffffffff16610d4782610681565b73ffffffffffffffffffffffffffffffffffffffff1614610d9d576040517f08c379a0000000000000000000000000000000000000000000000000000000008152600401610d94906124bc565b60405180910390fd5b600073ffffffffffffffffffffffffffffffffffffffff168273ffffffffffffffffffffffffffffffffffffffff1603610e0c576040517f08c379a0000000000000000000000000000000000000000000000000000000008152600401610e039061254e565b60405180910390fd5b610e198383836001611593565b8273ffffffffffffffffffffffffffffffffffffffff16610e3982610681565b73ffffffffffffffffffffffffffffffffffffffff1614610e8f576040517f08c379a0000000000000000000000000000000000000000000000000000000008152600401610e86906124bc565b60405180910390fd5b6004600082815260200190815260200160002060006101000a81549073ffffffffffffffffffffffffffffffffffffffff02191690556001600360008573ffffffffffffffffffffffffffffffffffffffff1673ffffffffffffffffffffffffffffffffffffffff168152602001908152602001600020600082825403925050819055506001600360008473ffffffffffffffffffffffffffffffffffffffff1673ffffffffffffffffffffffffffffffffffffffff16815260200190815260200160002060008282540192505081905550816002600083815260200190815260200160002060006101000a81548173ffffffffffffffffffffffffffffffffffffffff021916908373ffffffffffffffffffffffffffffffffffffffff160217905550808273ffffffffffffffffffffffffffffffffffffffff168473ffffffffffffffffffffffffffffffffffffffff167fddf252ad1be2c89b69c2b068fc378daa952ba7f163c4a11628f55a4df523b3ef60405160405180910390a461101b83838360016116b9565b505050565b60006002600083815260200190815260200160002060009054906101000a900473ffffffffffffffffffffffffffffffffffffffff169050919050565b600081600001549050919050565b600073ffffffffffffffffffffffffffffffffffffffff168273ffffffffffffffffffffffffffffffffffffffff16036110da576040517f08c379a00000000000000000000000000000000000000000000000000000000081526004016110d1906125ba565b60405180910390fd5b6110e381611552565b15611123576040517f08c379a000000000000000000000000000000000000000000000000000000000815260040161111a90612626565b60405180910390fd5b611131600083836001611593565b61113a81611552565b1561117a576040517f08c379a000000000000000000000000000000000000000000000000000000000815260040161117190612626565b60405180910390fd5b6001600360008473ffffffffffffffffffffffffffffffffffffffff1673ffffffffffffffffffffffffffffffffffffffff16815260200190815260200160002060008282540192505081905550816002600083815260200190815260200160002060006101000a81548173ffffffffffffffffffffffffffffffffffffffff021916908373ffffffffffffffffffffffffffffffffffffffff160217905550808273ffffffffffffffffffffffffffffffffffffffff16600073ffffffffffffffffffffffffffffffffffffffff167fddf252ad1be2c89b69c2b068fc378daa952ba7f163c4a11628f55a4df523b3ef60405160405180910390a46112846000838360016116b9565b5050565b61129182611552565b6112d0576040517f08c379a00000000000000000000000000000000000000000000000000000000081526004016112c7906126b8565b60405180910390fd5b806006600084815260200190815260200160002090816112f09190612884565b505050565b6001816000016000828254019250508190555050565b8173ffffffffffffffffffffffffffffffffffffffff168373ffffffffffffffffffffffffffffffffffffffff1603611379576040517f08c379a0000000000000000000000000000000000000000000000000000000008152600401611370906129a2565b60405180910390fd5b80600560008573ffffffffffffffffffffffffffffffffffffffff1673ffffffffffffffffffffffffffffffffffffffff16815260200190815260200160002060008473ffffffffffffffffffffffffffffffffffffffff1673ffffffffffffffffffffffffffffffffffffffff16815260200190815260200160002060006101000a81548160ff0219169083151502179055508173ffffffffffffffffffffffffffffffffffffffff168373ffffffffffffffffffffffffffffffffffffffff167f17307eab39ab6107e8899845ad3d59bd9653f200f220920489ca2b5937696c318360405161146a9190611b3e565b60405180910390a3505050565b611482848484610d27565b61148e848484846116bf565b6114cd576040517f08c379a00000000000000000000000000000000000000000000000000000000081526004016114c490612a34565b60405180910390fd5b50505050565b606060405180602001604052806000815250905090565b60606114f582610b86565b60006114ff6114d3565b9050600081511161151f576040518060200160405280600081525061154a565b8061152984611846565b60405160200161153a929190612426565b6040516020818303038152906040525b915050919050565b60008073ffffffffffffffffffffffffffffffffffffffff1661157483611020565b73ffffffffffffffffffffffffffffffffffffffff1614159050919050565b60018111156116b357600073ffffffffffffffffffffffffffffffffffffffff168473ffffffffffffffffffffffffffffffffffffffff16146116275780600360008673ffffffffffffffffffffffffffffffffffffffff1673ffffffffffffffffffffffffffffffffffffffff168152602001908152602001600020600082825461161f9190612a83565b925050819055505b600073ffffffffffffffffffffffffffffffffffffffff168373ffffffffffffffffffffffffffffffffffffffff16146116b25780600360008573ffffffffffffffffffffffffffffffffffffffff1673ffffffffffffffffffffffffffffffffffffffff16815260200190815260200160002060008282546116aa9190612ab7565b925050819055505b5b50505050565b50505050565b60006116e08473ffffffffffffffffffffffffffffffffffffffff16611914565b15611839578373ffffffffffffffffffffffffffffffffffffffff1663150b7a02611709610bd1565b8786866040518563ffffffff1660e01b815260040161172b9493929190612b40565b6020604051808303816000875af192505050801561176757506040513d601f19601f820116820180604052508101906117649190612ba1565b60015b6117e9573d8060008114611797576040519150601f19603f3d011682016040523d82523d6000602084013e61179c565b606091505b5060008151036117e1576040517f08c379a00000000000000000000000000000000000000000000000000000000081526004016117d890612a34565b60405180910390fd5b805181602001fd5b63150b7a0260e01b7bffffffffffffffffffffffffffffffffffffffffffffffffffffffff1916817bffffffffffffffffffffffffffffffffffffffffffffffffffffffff19161491505061183e565b600190505b949350505050565b60606000600161185584611937565b01905060008167ffffffffffffffff81111561187457611873611e56565b5b6040519080825280601f01601f1916602001820160405280156118a65781602001600182028036833780820191505090505b509050600082602001820190505b600115611909578080600190039150507f3031323334353637383961626364656600000000000000000000000000000000600a86061a8153600a85816118fd576118fc612bce565b5b049450600085036118b4575b819350505050919050565b6000808273ffffffffffffffffffffffffffffffffffffffff163b119050919050565b600080600090507a184f03e93ff9f4daa797ed6e38ed64bf6a1f0100000000000000008310611995577a184f03e93ff9f4daa797ed6e38ed64bf6a1f010000000000000000838161198b5761198a612bce565b5b0492506040810190505b6d04ee2d6d415b85acef810000000083106119d2576d04ee2d6d415b85acef810000000083816119c8576119c7612bce565b5b0492506020810190505b662386f26fc100008310611a0157662386f26fc1000083816119f7576119f6612bce565b5b0492506010810190505b6305f5e1008310611a2a576305f5e1008381611a2057611a1f612bce565b5b0492506008810190505b6127108310611a4f576127108381611a4557611a44612bce565b5b0492506004810190505b60648310611a725760648381611a6857611a67612bce565b5b0492506002810190505b600a8310611a81576001810190505b80915050919050565b6000604051905090565b600080fd5b600080fd5b60007fffffffff0000000000000000000000000000000000000000000000000000000082169050919050565b611ad381611a9e565b8114611ade57600080fd5b50565b600081359050611af081611aca565b92915050565b600060208284031215611b0c57611b0b611a94565b5b6000611b1a84828501611ae1565b91505092915050565b60008115159050919050565b611b3881611b23565b82525050565b6000602082019050611b536000830184611b2f565b92915050565b600081519050919050565b600082825260208201905092915050565b60005b83811015611b93578082015181840152602081019050611b78565b60008484015250505050565b6000601f19601f8301169050919050565b6000611bbb82611b59565b611bc58185611b64565b9350611bd5818560208601611b75565b611bde81611b9f565b840191505092915050565b60006020820190508181036000830152611c038184611bb0565b905092915050565b6000819050919050565b611c1e81611c0b565b8114611c2957600080fd5b50565b600081359050611c3b81611c15565b92915050565b600060208284031215611c5757611c56611a94565b5b6000611c6584828501611c2c565b91505092915050565b600073ffffffffffffffffffffffffffffffffffffffff82169050919050565b6000611c9982611c6e565b9050919050565b611ca981611c8e565b82525050565b6000602082019050611cc46000830184611ca0565b92915050565b611cd381611c8e565b8114611cde57600080fd5b50565b600081359050611cf081611cca565b92915050565b60008060408385031215611d0d57611d0c611a94565b5b6000611d1b85828601611ce1565b9250506020611d2c85828601611c2c565b9150509250929050565b600080600060608486031215611d4f57611d4e611a94565b5b6000611d5d86828701611ce1565b9350506020611d6e86828701611ce1565b9250506040611d7f86828701611c2c565b9150509250925092565b600060208284031215611d9f57611d9e611a94565b5b6000611dad84828501611ce1565b91505092915050565b611dbf81611c0b565b82525050565b6000602082019050611dda6000830184611db6565b92915050565b611de981611b23565b8114611df457600080fd5b50565b600081359050611e0681611de0565b92915050565b60008060408385031215611e2357611e22611a94565b5b6000611e3185828601611ce1565b9250506020611e4285828601611df7565b9150509250929050565b600080fd5b600080fd5b7f4e487b7100000000000000000000000000000000000000000000000000000000600052604160045260246000fd5b611e8e82611b9f565b810181811067ffffffffffffffff82111715611ead57611eac611e56565b5b80604052505050565b6000611ec0611a8a565b9050611ecc8282611e85565b919050565b600067ffffffffffffffff821115611eec57611eeb611e56565b5b611ef582611b9f565b9050602081019050919050565b82818337600083830152505050565b6000611f24611f1f84611ed1565b611eb6565b905082815260208101848484011115611f4057611f3f611e51565b5b611f4b848285611f02565b509392505050565b600082601f830112611f6857611f67611e4c565b5b8135611f78848260208601611f11565b91505092915050565b60008060008060808587031215611f9b57611f9a611a94565b5b6000611fa987828801611ce1565b9450506020611fba87828801611ce1565b9350506040611fcb87828801611c2c565b925050606085013567ffffffffffffffff811115611fec57611feb611a99565b5b611ff887828801611f53565b91505092959194509250565b6000806040838503121561201b5761201a611a94565b5b600061202985828601611ce1565b925050602061203a85828601611ce1565b9150509250929050565b7f4e487b7100000000000000000000000000000000000000000000000000000000600052602260045260246000fd5b6000600282049050600182168061208b57607f821691505b60208210810361209e5761209d612044565b5b50919050565b7f4552433732313a20617070726f76616c20746f2063757272656e74206f776e6560008201527f7200000000000000000000000000000000000000000000000000000000000000602082015250565b6000612100602183611b64565b915061210b826120a4565b604082019050919050565b6000602082019050818103600083015261212f816120f3565b9050919050565b7f4552433732313a20617070726f76652063616c6c6572206973206e6f7420746f60008201527f6b656e206f776e6572206f7220617070726f76656420666f7220616c6c000000602082015250565b6000612192603d83611b64565b915061219d82612136565b604082019050919050565b600060208201905081810360008301526121c181612185565b9050919050565b7f4552433732313a2063616c6c6572206973206e6f7420746f6b656e206f776e6560008201527f72206f7220617070726f76656400000000000000000000000000000000000000602082015250565b6000612224602d83611b64565b915061222f826121c8565b604082019050919050565b6000602082019050818103600083015261225381612217565b9050919050565b7f4552433732313a20696e76616c696420746f6b656e2049440000000000000000600082015250565b6000612290601883611b64565b915061229b8261225a565b602082019050919050565b600060208201905081810360008301526122bf81612283565b9050919050565b7f4d696e7461626c65206d6178696d756d20686173206265656e2072656163686560008201527f642e000000000000000000000000000000000000000000000000000000000000602082015250565b6000612322602283611b64565b915061232d826122c6565b604082019050919050565b6000602082019050818103600083015261235181612315565b9050919050565b7f4552433732313a2061646472657373207a65726f206973206e6f74206120766160008201527f6c6964206f776e65720000000000000000000000000000000000000000000000602082015250565b60006123b4602983611b64565b91506123bf82612358565b604082019050919050565b600060208201905081810360008301526123e3816123a7565b9050919050565b600081905092915050565b600061240082611b59565b61240a81856123ea565b935061241a818560208601611b75565b80840191505092915050565b600061243282856123f5565b915061243e82846123f5565b91508190509392505050565b7f4552433732313a207472616e736665722066726f6d20696e636f72726563742060008201527f6f776e6572000000000000000000000000000000000000000000000000000000602082015250565b60006124a6602583611b64565b91506124b18261244a565b604082019050919050565b600060208201905081810360008301526124d581612499565b9050919050565b7f4552433732313a207472616e7366657220746f20746865207a65726f2061646460008201527f7265737300000000000000000000000000000000000000000000000000000000602082015250565b6000612538602483611b64565b9150612543826124dc565b604082019050919050565b600060208201905081810360008301526125678161252b565b9050919050565b7f4552433732313a206d696e7420746f20746865207a65726f2061646472657373600082015250565b60006125a4602083611b64565b91506125af8261256e565b602082019050919050565b600060208201905081810360008301526125d381612597565b9050919050565b7f4552433732313a20746f6b656e20616c7265616479206d696e74656400000000600082015250565b6000612610601c83611b64565b915061261b826125da565b602082019050919050565b6000602082019050818103600083015261263f81612603565b9050919050565b7f45524337323155524953746f726167653a2055524920736574206f66206e6f6e60008201527f6578697374656e7420746f6b656e000000000000000000000000000000000000602082015250565b60006126a2602e83611b64565b91506126ad82612646565b604082019050919050565b600060208201905081810360008301526126d181612695565b9050919050565b60008190508160005260206000209050919050565b60006020601f8301049050919050565b600082821b905092915050565b60006008830261273a7fffffffffffffffffffffffffffffffffffffffffffffffffffffffffffffffff826126fd565b61274486836126fd565b95508019841693508086168417925050509392505050565b6000819050919050565b600061278161277c61277784611c0b565b61275c565b611c0b565b9050919050565b6000819050919050565b61279b83612766565b6127af6127a782612788565b84845461270a565b825550505050565b600090565b6127c46127b7565b6127cf818484612792565b505050565b5b818110156127f3576127e86000826127bc565b6001810190506127d5565b5050565b601f82111561283857612809816126d8565b612812846126ed565b81016020851015612821578190505b61283561282d856126ed565b8301826127d4565b50505b505050565b600082821c905092915050565b600061285b6000198460080261283d565b1980831691505092915050565b6000612874838361284a565b9150826002028217905092915050565b61288d82611b59565b67ffffffffffffffff8111156128a6576128a5611e56565b5b6128b08254612073565b6128bb8282856127f7565b600060209050601f8311600181146128ee57600084156128dc578287015190505b6128e68582612868565b86555061294e565b601f1984166128fc866126d8565b60005b82811015612924578489015182556001820191506020850194506020810190506128ff565b86831015612941578489015161293d601f89168261284a565b8355505b6001600288020188555050505b505050505050565b7f4552433732313a20617070726f766520746f2063616c6c657200000000000000600082015250565b600061298c601983611b64565b915061299782612956565b602082019050919050565b600060208201905081810360008301526129bb8161297f565b9050919050565b7f4552433732313a207472616e7366657220746f206e6f6e20455243373231526560008201527f63656976657220696d706c656d656e7465720000000000000000000000000000602082015250565b6000612a1e603283611b64565b9150612a29826129c2565b604082019050919050565b60006020820190508181036000830152612a4d81612a11565b9050919050565b7f4e487b7100000000000000000000000000000000000000000000000000000000600052601160045260246000fd5b6000612a8e82611c0b565b9150612a9983611c0b565b9250828203905081811115612ab157612ab0612a54565b5b92915050565b6000612ac282611c0b565b9150612acd83611c0b565b9250828201905080821115612ae557612ae4612a54565b5b92915050565b600081519050919050565b600082825260208201905092915050565b6000612b1282612aeb565b612b1c8185612af6565b9350612b2c818560208601611b75565b612b3581611b9f565b840191505092915050565b6000608082019050612b556000830187611ca0565b612b626020830186611ca0565b612b6f6040830185611db6565b8181036060830152612b818184612b07565b905095945050505050565b600081519050612b9b81611aca565b92915050565b600060208284031215612bb757612bb6611a94565b5b6000612bc584828501612b8c565b91505092915050565b7f4e487b7100000000000000000000000000000000000000000000000000000000600052601260045260246000fdfe68747470733a2f2f77617665732d6a702e636f6d2f6170692f746f6b656e7572692f31a26469706673582212206e7ddca13dca4f169810918a0904d1be9fa28b4fc4875d2fd5d7a1814c86db0264736f6c63430008110033",
  "immutableReferences": {},
  "source": "// SPDX-License-Identifier: MIT\npragma solidity ^0.8.0;\n\nimport \"@openzeppelin/contracts/token/ERC721/extensions/ERC721URIStorage.sol\";\nimport \"@openzeppelin/contracts/utils/Counters.sol\";\n\ncontract Mint is ERC721URIStorage {\n    using Counters for Counters.Counter;\n    Counters.Counter private _tokenIds;\n\n    uint256 MAX_MINT_LIMIT = 99;\n\n    constructor() ERC721(\"WAVES BusinessCard NFT v1\", \"WBN\") {}\n\n    function getCurrentId() public view returns (uint256) {\n      return _tokenIds.current();\n    }\n\n    function mint(address to)\n        public\n        returns (uint256)\n    {\n      require(MAX_MINT_LIMIT >= _tokenIds.current(), \"Mintable maximum has been reached.\");\n\n      uint256 newItemId = _tokenIds.current();\n      _mint(to, newItemId);\n      _setTokenURI(newItemId, \"https://waves-jp.com/api/tokenuri/1\");\n\n      _tokenIds.increment();\n\n      return newItemId;\n    }\n}\n",
  "sourcePath": "/Users/hadaryotaro/Documents/GitHub/syoinoue/corporate/smartcontracts/contracts/Mint.sol",
  "compiler": {
    "name": "solc",
    "version": "0.8.17+commit.8df45f5f.Emscripten.clang"
  },
  "schemaVersion": "3.4.11",
  "updatedAt": "2023-01-03T22:18:38.783Z",
  "networkType": "ethereum",
  "devdoc": {
    "kind": "dev",
    "methods": {
      "approve(address,uint256)": {
        "details": "See {IERC721-approve}."
      },
      "balanceOf(address)": {
        "details": "See {IERC721-balanceOf}."
      },
      "getApproved(uint256)": {
        "details": "See {IERC721-getApproved}."
      },
      "isApprovedForAll(address,address)": {
        "details": "See {IERC721-isApprovedForAll}."
      },
      "name()": {
        "details": "See {IERC721Metadata-name}."
      },
      "ownerOf(uint256)": {
        "details": "See {IERC721-ownerOf}."
      },
      "safeTransferFrom(address,address,uint256)": {
        "details": "See {IERC721-safeTransferFrom}."
      },
      "safeTransferFrom(address,address,uint256,bytes)": {
        "details": "See {IERC721-safeTransferFrom}."
      },
      "setApprovalForAll(address,bool)": {
        "details": "See {IERC721-setApprovalForAll}."
      },
      "supportsInterface(bytes4)": {
        "details": "See {IERC165-supportsInterface}."
      },
      "symbol()": {
        "details": "See {IERC721Metadata-symbol}."
      },
      "tokenURI(uint256)": {
        "details": "See {IERC721Metadata-tokenURI}."
      },
      "transferFrom(address,address,uint256)": {
        "details": "See {IERC721-transferFrom}."
      }
    },
    "version": 1
  },
  "userdoc": {
    "kind": "user",
    "methods": {},
    "version": 1
  }
}