{
  "contractName": "Mint",
  "abi": [
    {
      "inputs": [],
      "stateMutability": "nonpayable",
      "type": "constructor"
    },
    {
      "anonymous": false,
      "inputs": [
        {
          "indexed": true,
          "internalType": "address",
          "name": "owner",
          "type": "address"
        },
        {
          "indexed": true,
          "internalType": "address",
          "name": "approved",
          "type": "address"
        },
        {
          "indexed": true,
          "internalType": "uint256",
          "name": "tokenId",
          "type": "uint256"
        }
      ],
      "name": "Approval",
      "type": "event"
    },
    {
      "anonymous": false,
      "inputs": [
        {
          "indexed": true,
          "internalType": "address",
          "name": "owner",
          "type": "address"
        },
        {
          "indexed": true,
          "internalType": "address",
          "name": "operator",
          "type": "address"
        },
        {
          "indexed": false,
          "internalType": "bool",
          "name": "approved",
          "type": "bool"
        }
      ],
      "name": "ApprovalForAll",
      "type": "event"
    },
    {
      "anonymous": false,
      "inputs": [
        {
          "indexed": true,
          "internalType": "address",
          "name": "from",
          "type": "address"
        },
        {
          "indexed": true,
          "internalType": "address",
          "name": "to",
          "type": "address"
        },
        {
          "indexed": true,
          "internalType": "uint256",
          "name": "tokenId",
          "type": "uint256"
        }
      ],
      "name": "Transfer",
      "type": "event"
    },
    {
      "inputs": [
        {
          "internalType": "address",
          "name": "to",
          "type": "address"
        },
        {
          "internalType": "uint256",
          "name": "tokenId",
          "type": "uint256"
        }
      ],
      "name": "approve",
      "outputs": [],
      "stateMutability": "nonpayable",
      "type": "function"
    },
    {
      "inputs": [
        {
          "internalType": "address",
          "name": "owner",
          "type": "address"
        }
      ],
      "name": "balanceOf",
      "outputs": [
        {
          "internalType": "uint256",
          "name": "",
          "type": "uint256"
        }
      ],
      "stateMutability": "view",
      "type": "function",
      "constant": true
    },
    {
      "inputs": [
        {
          "internalType": "uint256",
          "name": "tokenId",
          "type": "uint256"
        }
      ],
      "name": "getApproved",
      "outputs": [
        {
          "internalType": "address",
          "name": "",
          "type": "address"
        }
      ],
      "stateMutability": "view",
      "type": "function",
      "constant": true
    },
    {
      "inputs": [
        {
          "internalType": "address",
          "name": "owner",
          "type": "address"
        },
        {
          "internalType": "address",
          "name": "operator",
          "type": "address"
        }
      ],
      "name": "isApprovedForAll",
      "outputs": [
        {
          "internalType": "bool",
          "name": "",
          "type": "bool"
        }
      ],
      "stateMutability": "view",
      "type": "function",
      "constant": true
    },
    {
      "inputs": [],
      "name": "name",
      "outputs": [
        {
          "internalType": "string",
          "name": "",
          "type": "string"
        }
      ],
      "stateMutability": "view",
      "type": "function",
      "constant": true
    },
    {
      "inputs": [
        {
          "internalType": "uint256",
          "name": "tokenId",
          "type": "uint256"
        }
      ],
      "name": "ownerOf",
      "outputs": [
        {
          "internalType": "address",
          "name": "",
          "type": "address"
        }
      ],
      "stateMutability": "view",
      "type": "function",
      "constant": true
    },
    {
      "inputs": [
        {
          "internalType": "address",
          "name": "from",
          "type": "address"
        },
        {
          "internalType": "address",
          "name": "to",
          "type": "address"
        },
        {
          "internalType": "uint256",
          "name": "tokenId",
          "type": "uint256"
        }
      ],
      "name": "safeTransferFrom",
      "outputs": [],
      "stateMutability": "nonpayable",
      "type": "function"
    },
    {
      "inputs": [
        {
          "internalType": "address",
          "name": "from",
          "type": "address"
        },
        {
          "internalType": "address",
          "name": "to",
          "type": "address"
        },
        {
          "internalType": "uint256",
          "name": "tokenId",
          "type": "uint256"
        },
        {
          "internalType": "bytes",
          "name": "data",
          "type": "bytes"
        }
      ],
      "name": "safeTransferFrom",
      "outputs": [],
      "stateMutability": "nonpayable",
      "type": "function"
    },
    {
      "inputs": [
        {
          "internalType": "address",
          "name": "operator",
          "type": "address"
        },
        {
          "internalType": "bool",
          "name": "approved",
          "type": "bool"
        }
      ],
      "name": "setApprovalForAll",
      "outputs": [],
      "stateMutability": "nonpayable",
      "type": "function"
    },
    {
      "inputs": [
        {
          "internalType": "bytes4",
          "name": "interfaceId",
          "type": "bytes4"
        }
      ],
      "name": "supportsInterface",
      "outputs": [
        {
          "internalType": "bool",
          "name": "",
          "type": "bool"
        }
      ],
      "stateMutability": "view",
      "type": "function",
      "constant": true
    },
    {
      "inputs": [],
      "name": "symbol",
      "outputs": [
        {
          "internalType": "string",
          "name": "",
          "type": "string"
        }
      ],
      "stateMutability": "view",
      "type": "function",
      "constant": true
    },
    {
      "inputs": [
        {
          "internalType": "uint256",
          "name": "tokenId",
          "type": "uint256"
        }
      ],
      "name": "tokenURI",
      "outputs": [
        {
          "internalType": "string",
          "name": "",
          "type": "string"
        }
      ],
      "stateMutability": "view",
      "type": "function",
      "constant": true
    },
    {
      "inputs": [
        {
          "internalType": "address",
          "name": "from",
          "type": "address"
        },
        {
          "internalType": "address",
          "name": "to",
          "type": "address"
        },
        {
          "internalType": "uint256",
          "name": "tokenId",
          "type": "uint256"
        }
      ],
      "name": "transferFrom",
      "outputs": [],
      "stateMutability": "nonpayable",
      "type": "function"
    },
    {
      "inputs": [],
      "name": "getCurrentId",
      "outputs": [
        {
          "internalType": "uint256",
          "name": "",
          "type": "uint256"
        }
      ],
      "stateMutability": "view",
      "type": "function",
      "constant": true
    },
    {
      "inputs": [
        {
          "internalType": "address",
          "name": "to",
          "type": "address"
        }
      ],
      "name": "mint",
      "outputs": [
        {
          "internalType": "uint256",
          "name": "",
          "type": "uint256"
        }
      ],
      "stateMutability": "nonpayable",
      "type": "function"
    }
  ],
  "bytecode": "0x60806040523480156200001157600080fd5b506040518060400160405280601981526020017f574156455320427573696e65737343617264204e4654207631000000000000008152506040518060400160405280600381526020017f57424e000000000000000000000000000000000000000000000000000000000081525081600090816200008f919062000324565b508060019081620000a1919062000324565b5050506200040b565b600081519050919050565b7f4e487b7100000000000000000000000000000000000000000000000000000000600052604160045260246000fd5b7f4e487b7100000000000000000000000000000000000000000000000000000000600052602260045260246000fd5b600060028204905060018216806200012c57607f821691505b602082108103620001425762000141620000e4565b5b50919050565b60008190508160005260206000209050919050565b60006020601f8301049050919050565b600082821b905092915050565b600060088302620001ac7fffffffffffffffffffffffffffffffffffffffffffffffffffffffffffffffff826200016d565b620001b886836200016d565b95508019841693508086168417925050509392505050565b6000819050919050565b6000819050919050565b600062000205620001ff620001f984620001d0565b620001da565b620001d0565b9050919050565b6000819050919050565b6200022183620001e4565b6200023962000230826200020c565b8484546200017a565b825550505050565b600090565b6200025062000241565b6200025d81848462000216565b505050565b5b8181101562000285576200027960008262000246565b60018101905062000263565b5050565b601f821115620002d4576200029e8162000148565b620002a9846200015d565b81016020851015620002b9578190505b620002d1620002c8856200015d565b83018262000262565b50505b505050565b600082821c905092915050565b6000620002f960001984600802620002d9565b1980831691505092915050565b6000620003148383620002e6565b9150826002028217905092915050565b6200032f82620000aa565b67ffffffffffffffff8111156200034b576200034a620000b5565b5b62000357825462000113565b6200036482828562000289565b600060209050601f8311600181146200039c576000841562000387578287015190505b62000393858262000306565b86555062000403565b601f198416620003ac8662000148565b60005b82811015620003d657848901518255600182019150602085019450602081019050620003af565b86831015620003f65784890151620003f2601f891682620002e6565b8355505b6001600288020188555050505b505050505050565b612b75806200041b6000396000f3fe608060405234801561001057600080fd5b50600436106100f55760003560e01c80636a62784211610097578063a22cb46511610066578063a22cb46514610298578063b88d4fde146102b4578063c87b56dd146102d0578063e985e9c514610300576100f5565b80636a627842146101fc5780636c1438621461022c57806370a082311461024a57806395d89b411461027a576100f5565b8063095ea7b3116100d3578063095ea7b31461017857806323b872dd1461019457806342842e0e146101b05780636352211e146101cc576100f5565b806301ffc9a7146100fa57806306fdde031461012a578063081812fc14610148575b600080fd5b610114600480360381019061010f9190611aa7565b610330565b6040516101219190611aef565b60405180910390f35b610132610412565b60405161013f9190611b9a565b60405180910390f35b610162600480360381019061015d9190611bf2565b6104a4565b60405161016f9190611c60565b60405180910390f35b610192600480360381019061018d9190611ca7565b6104ea565b005b6101ae60048036038101906101a99190611ce7565b610601565b005b6101ca60048036038101906101c59190611ce7565b610661565b005b6101e660048036038101906101e19190611bf2565b610681565b6040516101f39190611c60565b60405180910390f35b61021660048036038101906102119190611d3a565b610707565b6040516102239190611d76565b60405180910390f35b610234610755565b6040516102419190611d76565b60405180910390f35b610264600480360381019061025f9190611d3a565b610766565b6040516102719190611d76565b60405180910390f35b61028261081d565b60405161028f9190611b9a565b60405180910390f35b6102b260048036038101906102ad9190611dbd565b6108af565b005b6102ce60048036038101906102c99190611f32565b6108c5565b005b6102ea60048036038101906102e59190611bf2565b610927565b6040516102f79190611b9a565b60405180910390f35b61031a60048036038101906103159190611fb5565b610a39565b6040516103279190611aef565b60405180910390f35b60007f80ac58cd000000000000000000000000000000000000000000000000000000007bffffffffffffffffffffffffffffffffffffffffffffffffffffffff1916827bffffffffffffffffffffffffffffffffffffffffffffffffffffffff191614806103fb57507f5b5e139f000000000000000000000000000000000000000000000000000000007bffffffffffffffffffffffffffffffffffffffffffffffffffffffff1916827bffffffffffffffffffffffffffffffffffffffffffffffffffffffff1916145b8061040b575061040a82610acd565b5b9050919050565b60606000805461042190612024565b80601f016020809104026020016040519081016040528092919081815260200182805461044d90612024565b801561049a5780601f1061046f5761010080835404028352916020019161049a565b820191906000526020600020905b81548152906001019060200180831161047d57829003601f168201915b5050505050905090565b60006104af82610b37565b6004600083815260200190815260200160002060009054906101000a900473ffffffffffffffffffffffffffffffffffffffff169050919050565b60006104f582610681565b90508073ffffffffffffffffffffffffffffffffffffffff168373ffffffffffffffffffffffffffffffffffffffff1603610565576040517f08c379a000000000000000000000000000000000000000000000000000000000815260040161055c906120c7565b60405180910390fd5b8073ffffffffffffffffffffffffffffffffffffffff16610584610b82565b73ffffffffffffffffffffffffffffffffffffffff1614806105b357506105b2816105ad610b82565b610a39565b5b6105f2576040517f08c379a00000000000000000000000000000000000000000000000000000000081526004016105e990612159565b60405180910390fd5b6105fc8383610b8a565b505050565b61061261060c610b82565b82610c43565b610651576040517f08c379a0000000000000000000000000000000000000000000000000000000008152600401610648906121eb565b60405180910390fd5b61065c838383610cd8565b505050565b61067c838383604051806020016040528060008152506108c5565b505050565b60008061068d83610fd1565b9050600073ffffffffffffffffffffffffffffffffffffffff168173ffffffffffffffffffffffffffffffffffffffff16036106fe576040517f08c379a00000000000000000000000000000000000000000000000000000000081526004016106f590612257565b60405180910390fd5b80915050919050565b600080610714600761100e565b9050610720838261101c565b61074281604051806060016040528060238152602001612b1d60239139611239565b61074c60076112a6565b80915050919050565b6000610761600761100e565b905090565b60008073ffffffffffffffffffffffffffffffffffffffff168273ffffffffffffffffffffffffffffffffffffffff16036107d6576040517f08c379a00000000000000000000000000000000000000000000000000000000081526004016107cd906122e9565b60405180910390fd5b600360008373ffffffffffffffffffffffffffffffffffffffff1673ffffffffffffffffffffffffffffffffffffffff168152602001908152602001600020549050919050565b60606001805461082c90612024565b80601f016020809104026020016040519081016040528092919081815260200182805461085890612024565b80156108a55780601f1061087a576101008083540402835291602001916108a5565b820191906000526020600020905b81548152906001019060200180831161088857829003601f168201915b5050505050905090565b6108c16108ba610b82565b83836112bc565b5050565b6108d66108d0610b82565b83610c43565b610915576040517f08c379a000000000000000000000000000000000000000000000000000000000815260040161090c906121eb565b60405180910390fd5b61092184848484611428565b50505050565b606061093282610b37565b600060066000848152602001908152602001600020805461095290612024565b80601f016020809104026020016040519081016040528092919081815260200182805461097e90612024565b80156109cb5780601f106109a0576101008083540402835291602001916109cb565b820191906000526020600020905b8154815290600101906020018083116109ae57829003601f168201915b5050505050905060006109dc611484565b905060008151036109f1578192505050610a34565b600082511115610a26578082604051602001610a0e929190612345565b60405160208183030381529060405292505050610a34565b610a2f8461149b565b925050505b919050565b6000600560008473ffffffffffffffffffffffffffffffffffffffff1673ffffffffffffffffffffffffffffffffffffffff16815260200190815260200160002060008373ffffffffffffffffffffffffffffffffffffffff1673ffffffffffffffffffffffffffffffffffffffff16815260200190815260200160002060009054906101000a900460ff16905092915050565b60007f01ffc9a7000000000000000000000000000000000000000000000000000000007bffffffffffffffffffffffffffffffffffffffffffffffffffffffff1916827bffffffffffffffffffffffffffffffffffffffffffffffffffffffff1916149050919050565b610b4081611503565b610b7f576040517f08c379a0000000000000000000000000000000000000000000000000000000008152600401610b7690612257565b60405180910390fd5b50565b600033905090565b816004600083815260200190815260200160002060006101000a81548173ffffffffffffffffffffffffffffffffffffffff021916908373ffffffffffffffffffffffffffffffffffffffff160217905550808273ffffffffffffffffffffffffffffffffffffffff16610bfd83610681565b73ffffffffffffffffffffffffffffffffffffffff167f8c5be1e5ebec7d5bd14f71427d1e84f3dd0314c0f7b2291e5b200ac8c7c3b92560405160405180910390a45050565b600080610c4f83610681565b90508073ffffffffffffffffffffffffffffffffffffffff168473ffffffffffffffffffffffffffffffffffffffff161480610c915750610c908185610a39565b5b80610ccf57508373ffffffffffffffffffffffffffffffffffffffff16610cb7846104a4565b73ffffffffffffffffffffffffffffffffffffffff16145b91505092915050565b8273ffffffffffffffffffffffffffffffffffffffff16610cf882610681565b73ffffffffffffffffffffffffffffffffffffffff1614610d4e576040517f08c379a0000000000000000000000000000000000000000000000000000000008152600401610d45906123db565b60405180910390fd5b600073ffffffffffffffffffffffffffffffffffffffff168273ffffffffffffffffffffffffffffffffffffffff1603610dbd576040517f08c379a0000000000000000000000000000000000000000000000000000000008152600401610db49061246d565b60405180910390fd5b610dca8383836001611544565b8273ffffffffffffffffffffffffffffffffffffffff16610dea82610681565b73ffffffffffffffffffffffffffffffffffffffff1614610e40576040517f08c379a0000000000000000000000000000000000000000000000000000000008152600401610e37906123db565b60405180910390fd5b6004600082815260200190815260200160002060006101000a81549073ffffffffffffffffffffffffffffffffffffffff02191690556001600360008573ffffffffffffffffffffffffffffffffffffffff1673ffffffffffffffffffffffffffffffffffffffff168152602001908152602001600020600082825403925050819055506001600360008473ffffffffffffffffffffffffffffffffffffffff1673ffffffffffffffffffffffffffffffffffffffff16815260200190815260200160002060008282540192505081905550816002600083815260200190815260200160002060006101000a81548173ffffffffffffffffffffffffffffffffffffffff021916908373ffffffffffffffffffffffffffffffffffffffff160217905550808273ffffffffffffffffffffffffffffffffffffffff168473ffffffffffffffffffffffffffffffffffffffff167fddf252ad1be2c89b69c2b068fc378daa952ba7f163c4a11628f55a4df523b3ef60405160405180910390a4610fcc838383600161166a565b505050565b60006002600083815260200190815260200160002060009054906101000a900473ffffffffffffffffffffffffffffffffffffffff169050919050565b600081600001549050919050565b600073ffffffffffffffffffffffffffffffffffffffff168273ffffffffffffffffffffffffffffffffffffffff160361108b576040517f08c379a0000000000000000000000000000000000000000000000000000000008152600401611082906124d9565b60405180910390fd5b61109481611503565b156110d4576040517f08c379a00000000000000000000000000000000000000000000000000000000081526004016110cb90612545565b60405180910390fd5b6110e2600083836001611544565b6110eb81611503565b1561112b576040517f08c379a000000000000000000000000000000000000000000000000000000000815260040161112290612545565b60405180910390fd5b6001600360008473ffffffffffffffffffffffffffffffffffffffff1673ffffffffffffffffffffffffffffffffffffffff16815260200190815260200160002060008282540192505081905550816002600083815260200190815260200160002060006101000a81548173ffffffffffffffffffffffffffffffffffffffff021916908373ffffffffffffffffffffffffffffffffffffffff160217905550808273ffffffffffffffffffffffffffffffffffffffff16600073ffffffffffffffffffffffffffffffffffffffff167fddf252ad1be2c89b69c2b068fc378daa952ba7f163c4a11628f55a4df523b3ef60405160405180910390a461123560008383600161166a565b5050565b61124282611503565b611281576040517f08c379a0000000000000000000000000000000000000000000000000000000008152600401611278906125d7565b60405180910390fd5b806006600084815260200190815260200160002090816112a191906127a3565b505050565b6001816000016000828254019250508190555050565b8173ffffffffffffffffffffffffffffffffffffffff168373ffffffffffffffffffffffffffffffffffffffff160361132a576040517f08c379a0000000000000000000000000000000000000000000000000000000008152600401611321906128c1565b60405180910390fd5b80600560008573ffffffffffffffffffffffffffffffffffffffff1673ffffffffffffffffffffffffffffffffffffffff16815260200190815260200160002060008473ffffffffffffffffffffffffffffffffffffffff1673ffffffffffffffffffffffffffffffffffffffff16815260200190815260200160002060006101000a81548160ff0219169083151502179055508173ffffffffffffffffffffffffffffffffffffffff168373ffffffffffffffffffffffffffffffffffffffff167f17307eab39ab6107e8899845ad3d59bd9653f200f220920489ca2b5937696c318360405161141b9190611aef565b60405180910390a3505050565b611433848484610cd8565b61143f84848484611670565b61147e576040517f08c379a000000000000000000000000000000000000000000000000000000000815260040161147590612953565b60405180910390fd5b50505050565b606060405180602001604052806000815250905090565b60606114a682610b37565b60006114b0611484565b905060008151116114d057604051806020016040528060008152506114fb565b806114da846117f7565b6040516020016114eb929190612345565b6040516020818303038152906040525b915050919050565b60008073ffffffffffffffffffffffffffffffffffffffff1661152583610fd1565b73ffffffffffffffffffffffffffffffffffffffff1614159050919050565b600181111561166457600073ffffffffffffffffffffffffffffffffffffffff168473ffffffffffffffffffffffffffffffffffffffff16146115d85780600360008673ffffffffffffffffffffffffffffffffffffffff1673ffffffffffffffffffffffffffffffffffffffff16815260200190815260200160002060008282546115d091906129a2565b925050819055505b600073ffffffffffffffffffffffffffffffffffffffff168373ffffffffffffffffffffffffffffffffffffffff16146116635780600360008573ffffffffffffffffffffffffffffffffffffffff1673ffffffffffffffffffffffffffffffffffffffff168152602001908152602001600020600082825461165b91906129d6565b925050819055505b5b50505050565b50505050565b60006116918473ffffffffffffffffffffffffffffffffffffffff166118c5565b156117ea578373ffffffffffffffffffffffffffffffffffffffff1663150b7a026116ba610b82565b8786866040518563ffffffff1660e01b81526004016116dc9493929190612a5f565b6020604051808303816000875af192505050801561171857506040513d601f19601f820116820180604052508101906117159190612ac0565b60015b61179a573d8060008114611748576040519150601f19603f3d011682016040523d82523d6000602084013e61174d565b606091505b506000815103611792576040517f08c379a000000000000000000000000000000000000000000000000000000000815260040161178990612953565b60405180910390fd5b805181602001fd5b63150b7a0260e01b7bffffffffffffffffffffffffffffffffffffffffffffffffffffffff1916817bffffffffffffffffffffffffffffffffffffffffffffffffffffffff1916149150506117ef565b600190505b949350505050565b606060006001611806846118e8565b01905060008167ffffffffffffffff81111561182557611824611e07565b5b6040519080825280601f01601f1916602001820160405280156118575781602001600182028036833780820191505090505b509050600082602001820190505b6001156118ba578080600190039150507f3031323334353637383961626364656600000000000000000000000000000000600a86061a8153600a85816118ae576118ad612aed565b5b04945060008503611865575b819350505050919050565b6000808273ffffffffffffffffffffffffffffffffffffffff163b119050919050565b600080600090507a184f03e93ff9f4daa797ed6e38ed64bf6a1f0100000000000000008310611946577a184f03e93ff9f4daa797ed6e38ed64bf6a1f010000000000000000838161193c5761193b612aed565b5b0492506040810190505b6d04ee2d6d415b85acef81000000008310611983576d04ee2d6d415b85acef8100000000838161197957611978612aed565b5b0492506020810190505b662386f26fc1000083106119b257662386f26fc1000083816119a8576119a7612aed565b5b0492506010810190505b6305f5e10083106119db576305f5e10083816119d1576119d0612aed565b5b0492506008810190505b6127108310611a005761271083816119f6576119f5612aed565b5b0492506004810190505b60648310611a235760648381611a1957611a18612aed565b5b0492506002810190505b600a8310611a32576001810190505b80915050919050565b6000604051905090565b600080fd5b600080fd5b60007fffffffff0000000000000000000000000000000000000000000000000000000082169050919050565b611a8481611a4f565b8114611a8f57600080fd5b50565b600081359050611aa181611a7b565b92915050565b600060208284031215611abd57611abc611a45565b5b6000611acb84828501611a92565b91505092915050565b60008115159050919050565b611ae981611ad4565b82525050565b6000602082019050611b046000830184611ae0565b92915050565b600081519050919050565b600082825260208201905092915050565b60005b83811015611b44578082015181840152602081019050611b29565b60008484015250505050565b6000601f19601f8301169050919050565b6000611b6c82611b0a565b611b768185611b15565b9350611b86818560208601611b26565b611b8f81611b50565b840191505092915050565b60006020820190508181036000830152611bb48184611b61565b905092915050565b6000819050919050565b611bcf81611bbc565b8114611bda57600080fd5b50565b600081359050611bec81611bc6565b92915050565b600060208284031215611c0857611c07611a45565b5b6000611c1684828501611bdd565b91505092915050565b600073ffffffffffffffffffffffffffffffffffffffff82169050919050565b6000611c4a82611c1f565b9050919050565b611c5a81611c3f565b82525050565b6000602082019050611c756000830184611c51565b92915050565b611c8481611c3f565b8114611c8f57600080fd5b50565b600081359050611ca181611c7b565b92915050565b60008060408385031215611cbe57611cbd611a45565b5b6000611ccc85828601611c92565b9250506020611cdd85828601611bdd565b9150509250929050565b600080600060608486031215611d0057611cff611a45565b5b6000611d0e86828701611c92565b9350506020611d1f86828701611c92565b9250506040611d3086828701611bdd565b9150509250925092565b600060208284031215611d5057611d4f611a45565b5b6000611d5e84828501611c92565b91505092915050565b611d7081611bbc565b82525050565b6000602082019050611d8b6000830184611d67565b92915050565b611d9a81611ad4565b8114611da557600080fd5b50565b600081359050611db781611d91565b92915050565b60008060408385031215611dd457611dd3611a45565b5b6000611de285828601611c92565b9250506020611df385828601611da8565b9150509250929050565b600080fd5b600080fd5b7f4e487b7100000000000000000000000000000000000000000000000000000000600052604160045260246000fd5b611e3f82611b50565b810181811067ffffffffffffffff82111715611e5e57611e5d611e07565b5b80604052505050565b6000611e71611a3b565b9050611e7d8282611e36565b919050565b600067ffffffffffffffff821115611e9d57611e9c611e07565b5b611ea682611b50565b9050602081019050919050565b82818337600083830152505050565b6000611ed5611ed084611e82565b611e67565b905082815260208101848484011115611ef157611ef0611e02565b5b611efc848285611eb3565b509392505050565b600082601f830112611f1957611f18611dfd565b5b8135611f29848260208601611ec2565b91505092915050565b60008060008060808587031215611f4c57611f4b611a45565b5b6000611f5a87828801611c92565b9450506020611f6b87828801611c92565b9350506040611f7c87828801611bdd565b925050606085013567ffffffffffffffff811115611f9d57611f9c611a4a565b5b611fa987828801611f04565b91505092959194509250565b60008060408385031215611fcc57611fcb611a45565b5b6000611fda85828601611c92565b9250506020611feb85828601611c92565b9150509250929050565b7f4e487b7100000000000000000000000000000000000000000000000000000000600052602260045260246000fd5b6000600282049050600182168061203c57607f821691505b60208210810361204f5761204e611ff5565b5b50919050565b7f4552433732313a20617070726f76616c20746f2063757272656e74206f776e6560008201527f7200000000000000000000000000000000000000000000000000000000000000602082015250565b60006120b1602183611b15565b91506120bc82612055565b604082019050919050565b600060208201905081810360008301526120e0816120a4565b9050919050565b7f4552433732313a20617070726f76652063616c6c6572206973206e6f7420746f60008201527f6b656e206f776e6572206f7220617070726f76656420666f7220616c6c000000602082015250565b6000612143603d83611b15565b915061214e826120e7565b604082019050919050565b6000602082019050818103600083015261217281612136565b9050919050565b7f4552433732313a2063616c6c6572206973206e6f7420746f6b656e206f776e6560008201527f72206f7220617070726f76656400000000000000000000000000000000000000602082015250565b60006121d5602d83611b15565b91506121e082612179565b604082019050919050565b60006020820190508181036000830152612204816121c8565b9050919050565b7f4552433732313a20696e76616c696420746f6b656e2049440000000000000000600082015250565b6000612241601883611b15565b915061224c8261220b565b602082019050919050565b6000602082019050818103600083015261227081612234565b9050919050565b7f4552433732313a2061646472657373207a65726f206973206e6f74206120766160008201527f6c6964206f776e65720000000000000000000000000000000000000000000000602082015250565b60006122d3602983611b15565b91506122de82612277565b604082019050919050565b60006020820190508181036000830152612302816122c6565b9050919050565b600081905092915050565b600061231f82611b0a565b6123298185612309565b9350612339818560208601611b26565b80840191505092915050565b60006123518285612314565b915061235d8284612314565b91508190509392505050565b7f4552433732313a207472616e736665722066726f6d20696e636f72726563742060008201527f6f776e6572000000000000000000000000000000000000000000000000000000602082015250565b60006123c5602583611b15565b91506123d082612369565b604082019050919050565b600060208201905081810360008301526123f4816123b8565b9050919050565b7f4552433732313a207472616e7366657220746f20746865207a65726f2061646460008201527f7265737300000000000000000000000000000000000000000000000000000000602082015250565b6000612457602483611b15565b9150612462826123fb565b604082019050919050565b600060208201905081810360008301526124868161244a565b9050919050565b7f4552433732313a206d696e7420746f20746865207a65726f2061646472657373600082015250565b60006124c3602083611b15565b91506124ce8261248d565b602082019050919050565b600060208201905081810360008301526124f2816124b6565b9050919050565b7f4552433732313a20746f6b656e20616c7265616479206d696e74656400000000600082015250565b600061252f601c83611b15565b915061253a826124f9565b602082019050919050565b6000602082019050818103600083015261255e81612522565b9050919050565b7f45524337323155524953746f726167653a2055524920736574206f66206e6f6e60008201527f6578697374656e7420746f6b656e000000000000000000000000000000000000602082015250565b60006125c1602e83611b15565b91506125cc82612565565b604082019050919050565b600060208201905081810360008301526125f0816125b4565b9050919050565b60008190508160005260206000209050919050565b60006020601f8301049050919050565b600082821b905092915050565b6000600883026126597fffffffffffffffffffffffffffffffffffffffffffffffffffffffffffffffff8261261c565b612663868361261c565b95508019841693508086168417925050509392505050565b6000819050919050565b60006126a061269b61269684611bbc565b61267b565b611bbc565b9050919050565b6000819050919050565b6126ba83612685565b6126ce6126c6826126a7565b848454612629565b825550505050565b600090565b6126e36126d6565b6126ee8184846126b1565b505050565b5b81811015612712576127076000826126db565b6001810190506126f4565b5050565b601f82111561275757612728816125f7565b6127318461260c565b81016020851015612740578190505b61275461274c8561260c565b8301826126f3565b50505b505050565b600082821c905092915050565b600061277a6000198460080261275c565b1980831691505092915050565b60006127938383612769565b9150826002028217905092915050565b6127ac82611b0a565b67ffffffffffffffff8111156127c5576127c4611e07565b5b6127cf8254612024565b6127da828285612716565b600060209050601f83116001811461280d57600084156127fb578287015190505b6128058582612787565b86555061286d565b601f19841661281b866125f7565b60005b828110156128435784890151825560018201915060208501945060208101905061281e565b86831015612860578489015161285c601f891682612769565b8355505b6001600288020188555050505b505050505050565b7f4552433732313a20617070726f766520746f2063616c6c657200000000000000600082015250565b60006128ab601983611b15565b91506128b682612875565b602082019050919050565b600060208201905081810360008301526128da8161289e565b9050919050565b7f4552433732313a207472616e7366657220746f206e6f6e20455243373231526560008201527f63656976657220696d706c656d656e7465720000000000000000000000000000602082015250565b600061293d603283611b15565b9150612948826128e1565b604082019050919050565b6000602082019050818103600083015261296c81612930565b9050919050565b7f4e487b7100000000000000000000000000000000000000000000000000000000600052601160045260246000fd5b60006129ad82611bbc565b91506129b883611bbc565b92508282039050818111156129d0576129cf612973565b5b92915050565b60006129e182611bbc565b91506129ec83611bbc565b9250828201905080821115612a0457612a03612973565b5b92915050565b600081519050919050565b600082825260208201905092915050565b6000612a3182612a0a565b612a3b8185612a15565b9350612a4b818560208601611b26565b612a5481611b50565b840191505092915050565b6000608082019050612a746000830187611c51565b612a816020830186611c51565b612a8e6040830185611d67565b8181036060830152612aa08184612a26565b905095945050505050565b600081519050612aba81611a7b565b92915050565b600060208284031215612ad657612ad5611a45565b5b6000612ae484828501612aab565b91505092915050565b7f4e487b7100000000000000000000000000000000000000000000000000000000600052601260045260246000fdfe68747470733a2f2f77617665732d6a702e636f6d2f6170692f746f6b656e7572692f31a2646970667358221220df00ad59042786cea81f4fb73b92c91416149e0bd9ba56e175d16b36d34f7af064736f6c63430008110033",
  "immutableReferences": {},
  "source": "// SPDX-License-Identifier: MIT\npragma solidity ^0.8.0;\n\nimport \"@openzeppelin/contracts/token/ERC721/extensions/ERC721URIStorage.sol\";\nimport \"@openzeppelin/contracts/utils/Counters.sol\";\n\ncontract Mint is ERC721URIStorage {\n    using Counters for Counters.Counter;\n    Counters.Counter private _tokenIds;\n\n    constructor() ERC721(\"WAVES BusinessCard NFT v1\", \"WBN\") {}\n\n    function getCurrentId() public view returns (uint256) {\n      return _tokenIds.current();\n    }\n\n    function mint(address to)\n        public\n        returns (uint256)\n    {\n        uint256 newItemId = _tokenIds.current();\n        _mint(to, newItemId);\n        _setTokenURI(newItemId, \"https://waves-jp.com/api/tokenuri/1\");\n\n        _tokenIds.increment();\n\n        return newItemId;\n    }\n}\n",
  "sourcePath": "/Users/hadaryotaro/Documents/GitHub/syoinoue/corporate/smartcontracts/contracts/Mint.sol",
  "compiler": {
    "name": "solc",
    "version": "0.8.17+commit.8df45f5f.Emscripten.clang"
  },
  "schemaVersion": "3.4.11",
  "updatedAt": "2023-01-03T15:32:27.808Z",
  "networkType": "ethereum",
  "devdoc": {
    "kind": "dev",
    "methods": {
      "approve(address,uint256)": {
        "details": "See {IERC721-approve}."
      },
      "balanceOf(address)": {
        "details": "See {IERC721-balanceOf}."
      },
      "getApproved(uint256)": {
        "details": "See {IERC721-getApproved}."
      },
      "isApprovedForAll(address,address)": {
        "details": "See {IERC721-isApprovedForAll}."
      },
      "name()": {
        "details": "See {IERC721Metadata-name}."
      },
      "ownerOf(uint256)": {
        "details": "See {IERC721-ownerOf}."
      },
      "safeTransferFrom(address,address,uint256)": {
        "details": "See {IERC721-safeTransferFrom}."
      },
      "safeTransferFrom(address,address,uint256,bytes)": {
        "details": "See {IERC721-safeTransferFrom}."
      },
      "setApprovalForAll(address,bool)": {
        "details": "See {IERC721-setApprovalForAll}."
      },
      "supportsInterface(bytes4)": {
        "details": "See {IERC165-supportsInterface}."
      },
      "symbol()": {
        "details": "See {IERC721Metadata-symbol}."
      },
      "tokenURI(uint256)": {
        "details": "See {IERC721Metadata-tokenURI}."
      },
      "transferFrom(address,address,uint256)": {
        "details": "See {IERC721-transferFrom}."
      }
    },
    "version": 1
  },
  "userdoc": {
    "kind": "user",
    "methods": {},
    "version": 1
  }
}